:400000000080002011000000A9090000A909000010B500F0E9FCC04670B512222A4B1A6001F0EAFD294801F0E7FE012001F004FE302001F0FBFC264A264B1A60264C8025E6
:40004000ED052560254A116802230B431360244A244B1A600022244B1A60244A136808218B431360FA20C00001F092FD204801F0D3FCFE2212021F4B1A601F4B1F491960A1
:400080001F490A601F4A1A60A02189011E4A11601E4A1A60802212061D4B1A608022D2021C4B1A6040221C4B1A6001321B4B1A6001321B4B1A601B49082001F05DFC08202B
:4000C00001F03AFC256070BD30001040001BB7000600008004010B400C020B4078002E402D3E00007C002E4064F02E406CF02E40DC050000000301400000014040FF0080BA
:400100000403014041FF00800803014042FF008008010B4000010B40140101401001014008010140511D000010B572B600222B4B1A6000240FE02A486200131959000B0034
:40014000411889881A5AC31858880004104300F0F1FB0134E4B2012CEDD9214801000C31243000F0CDFB8022D2021E4B1A60EE2212061D4B1A60EE2212041C4B1A6099231C
:400180001B041B4A13601B4A13601B4A13601B490B783C22934314221343DBB20B70184A117816230B43DBB21370D8221204154B1A600123144A1360144A13603121144A07
:4001C00011601449144A1160144A1360144A1360FFF722FF00F0D4FB10BDC0466CF02E409443010014000B40000002400003024000500F4020500F4030500F4001700F40A2
:4002000000700F40080004400002044018020440000304400240020008030440000404401804044010B5064C2378002B07D1054B002B02D0044800E000BF0123237010BD1C
:400240001811002000000000F8420100084B10B5002B03D00749084800E000BF07480368002B00D110BD064B002BFBD09847F9E7000000001C110020F8420100A00B0020C9
:4002800000000000F0B5474680B484B001F0BDFD0190002303E0002202A9CA540133042BF9DD002001F0D8FA132001F09DFB012001F0D2FA002604E00136FA235B009E4228
:4002C00050DC01F0D5FA0128F6D004E00136FA235B009E4246DC01F0CBFA0028F6D001F0C7FA0128FBD0002398460025072721E001F0BEFA0028FBD0002400E0013401F029
:40030000B7FA0128FAD0F30F9B195B109C4206DD0123BB4002AA525D134302AA5355002F03D16B1CDDB2073701E0013FFFB201239C46E0444346272BDADD02AB1A7859781E
:400340009B7802A8C07812028A180C490A601B02C3184B60019801F05CFD012001F044FB002007E0054B63221A605A60019801F050FD632004B004BC9046F0BDA40B00200C
:4003800030B5A1B096227E236B441A8062B600F069FE814B187A00230222102100F096F900F052FA00F020FD62B6002000F066FD00F05AFD00F0E0FD00F0D0FC00F0C4FB4E
:4003C0000028FBD1754801F025F802F00BFE00F0D3FD00F0C3FC00F0B7FB0028FBD1704B00241C5F002C00DC0024322C00DD3224FFF748FF6B4B1B786B4A12781A4243D0F3
:40040000654C0A21206802F055F82060E368984231D000F0C3F9604C2368E3600021002000F0CCF9614800F0FFF9E268604915A802F078F90121002000F0C0F915A800F01B
:40044000F3F95C4D12232B810C342C60103BAB80594C237860780002184329000EF056F9FA20800001F0C0FA00232200002128000FF0A0FBA9E79842A7D1FFF703FFFA2078
:40048000800001F0B1FAA0E74C4A12781A4244D0414C0A21606802F00DF860602369984231D000F07BF93C4C636823610021002000F084F9424800F0B7F9226941490BA890
:4004C00002F030F90121002000F078F90BA800F0ABF93D4D16232B8110342C60143BAB80354C00232200002128000FF063FB237860780002184329000EF008F9FA20800040
:4005000001F072FA61E7984200D05EE7FFF7BAFEFA20800001F068FA57E72C4A12781A4200D152E77E236B4400229B5E9C422DD07E256D442C8000F031F90021002000F057
:400540003DF9234800F070F90023EA5E214901A802F0E8F80121002000F030F901A800F063F91D4C1B2323812560193BA380124D00232A00002120000FF01CFB2B78687814
:400580000002184321000EF0C1F81EE79C4200D01BE7FFF777FE18E7A40B0020DD0500004C11002034110020E2220020FC4201000C430100E4220020E0220020E322002034
:4005C000184301002C430100C8220020F02200203843010048430100D422002010B50C00282808D002D8012805D05DE0412819D04C282BD058E0002000F05EFF00222B4BC9
:400600001A7000F0CBF80021002000F0D7F8284800F00AF90121002000F0D0F8254800F003F941E00222244802F06BF801221F4B1A7000F0B3F81E4800F0F6F80121002089
:4006400000F0BCF81D4800F0EFF82DE08B89132B0AD1081D0023184A00210FF0ABFA63681A78174B1A7018E0172B0AD1081D0023114A00210FF09EFA63681A78114B1A70F5
:400680000BE01C2B09D1081D00230B4A00210FF091FA63681A780C4B1A70074A13785078000218430EF07EF810BDC046341100205443010064430100E022002074430100E1
:4006C000E2220020E3220020F022002010B5064C20700648017006490A70064A13700822054B1A7010BDC046F2220020F7220020F8220020F4220020F122002010B50C00C5
:400700000222002100F0BEFD0221200000F048FE022000F019FE10BD10B5044B1B7801001943034B1878FFF7E9FF10BDF1220020F222002010B50400042003002343D8B286
:40074000FFF7EAFF012001F067F9042320009843FFF7E2FF322001F05FF910BD10B50400FFF7DAFF2000FFF7E5FF10BD70B50D000F2302009A4313000001C4B20B43180035
:40078000FFF7ECFF20002843FFF7E8FF70BDC04610B50021FFF7EAFF10BDC04610B50120FFF7F6FF022001F01FF910BD10B50220FFF7EEFF022001F017F910BD70B584B049
:4007C0006B460C4A70CA70C31C00136823600A4B1B788B4201D2013BD9B289006B46CB58C01880235B421843C0B2FFF7D1FF04B070BDC04684430100F822002010B5064A16
:40080000107804231843C0B2107008231843C0B2FFF7BEFF10BDC046F322002010B50121FFF7A4FF10BDC04670B5060001F09CFF0500002403E0305DFFF7F0FF0134FF232A
:400840002B409C42F7D370BD10B50022254B1A70254B1B78012B02D90821224A1170234A1278002A06D0012B04D11E4A117804230B431370322001F0B7F81D4B1878FFF776
:400880004BFFFA20800001F0AFF83020FFF766FF184C200001F0C0F83020FFF75FFF200001F0BAF83020FFF759FF962001F0B4F82020FFF753FF0B4B187820231843C0B20E
:4008C000FFF766FF04220C4B1A70FFF797FFFFF765FF0222094B1A700620FFF759FFFFF765FF10BDF6220020F8220020F4220020F122002094110000F3220020F522002027
:40090000F0B50025002711E0BB00C658F3B2FF22964308E06A008A181478A419527822700135013BDBB2002BF4D10137032FEBD9F0BDC04610B50A00002101F0EBFE10BD5D
:400940000C4B1B68002803D080221206134301E05B005B08074A1360074B1B68002803D080229204134301E0044A1340024A13607047C04680033A4008010B40FFFFFFFD88
:4009800010B50323054A1360054A13600022054B1A600120FFF7D4FF10BDC0463000304030003140000E3F4010B501F06FFE03680C2B00D1FEE7FEE710B50300084A10685F
:4009C000C318084A9A1A802A02DC054A136005E001F05CFE0C2303600120404210BDC046B80B00208023002070B50F4E0F4D13E029686B68AC68002202E001C901C30432DD
:400A0000A242FAD1E868002202E0002102C304328242FAD11035013E002EE9D101F03CFEFFF7AEFCFEE7C04601000000AC48010010B50E4A136801218B43136000230AE0E8
:400A4000032B03D89A000A49505800E009489900094A885001332F2BF2D9FFF765FB034A116801230B43136010BDC0460000104000000000A90900000000002010B519486E
:400A80000368DBB2184A13700F218B43174A14780F22224013430360154A13689B0A9B02136013688020800003431360114B1868114A02401A601A68104802431A6010485B
:400AC00003688B43062213430360102000F03EFF0C49102000F050FF0321102000F05EFF10BDC04600FF2840FC22002062F2FF0F080028400400284037D75EFE0008A00151
:400B0000000402409D0F000010B500F0F1FE00F0C5FE0021002000F0CDFE0021002000F0F3FEFF2000F0ACFE402000F0D3FE044A136804490B431360102000F0FDFE10BDB5
:400B40000400284000100880024B1878012318407047C0463811002070B501F056F907490B680F2293430B3A1343054C22680725AA4322600B6001F04CF970BD00020240A0
:400B80000802044010B50F4B1A5C0F490B680F2083430B60022A00D10022012A01D1002400E0062401F031F9084A136807218B432343136001F02DF9054A136801218B4355
:400BC000136010BD0423002000020240080204400002044010B5002403E02000FFF7D2FF0134002CF9D010BD70B5040000F080FE00F054FE00210B2000F05CFE00210B2031
:400C000000F082FEFF2000F03BFE402000F062FE102000F09BFE80225202194B1A60184B1B681B0CFBD10122164B1A60102000F097FE102000F080FE102000F087FE124995
:400C40000B68FF229343AF3A13430B600F4E35680F4B1D400F4B1D43102000F06DFE2000FFF77AFF01F0D1F804003560002001F0C3F8094A024B1A60200001F0CAF870BDA2
:400C80000C002840140028400800284004002840FF1FDFFF200020000000FFFF10B5054B00221A70C2B29A7181221A70FFF79CFF10BDC0463811002010B50E4B1A68430011
:400CC0000D49CB189A80FFF75DFF102000F03EFE0A4A11680A4B0B40A02109020B431360084A1368FF218B431360102000F024FE10BDC0460C00284038110020040028406D
:400D0000FF1FDFFF08002840044A11684002C023DB001840084310607047C04604002840CA0807231940063B8B40825C134201D0012000E00020704710B504000134E4B273
:400D4000012C06D0210004480830FFF7E9FF0028F4D0200010BDC0463811002010B50B4C00232370FF33A371A079C0B2FFF7E4FFA071A379002B08D1217801230B43DBB260
:400D80002370A079C0B2FFF72FFF10BD3811002010B5CC0807231940063B8B40DBB2002A04D0041922781343237003E0041922789A43227010BDC046014B19547047C04616
:400DC0000423002010B5002404E000212000FFF7F3FF0134002CF8D0FFF750FE0020FFF793FFFFF7F7FE10BD10B5094B5B7A002B04D1FFF7E7FF0122054B5A72FFF784FE68
:400E0000044A13688021C9030B43136010BDC046381100200400284030B5094B195C4300084A9C5A084A9C52101800250571D0180581521802211173044A9C5230BDC04629
:400E40001C4401003C110020441100200C23002010B50400FFF722FFFFF776FE0028FBD12000FFF7D9FF10BD10B5002403E02000FFF7EEFF0134002CF9D010BD10B5012239
:400E800000210248FFF784FF10BDC04640110020401849004018800880B27047F0B5474680B4040042002D4BD05A2D4B1B78002B05D02C4D1600515BFFF7EAFF7053630007
:400EC000294A9A5A904206D30021284B1955851AADB2012602E0151AADB20026002E13D1142D11D9214B1B5D1D4A12191279934206D32000FFF790FF00221C4B1A551BE09F
:400F000001331A4A135517E0032D03D9132D13D8002E11D113029C46134B984619190B7967463B43C018801A020A63004746FA52087100220D4B1A55032D06D9002E04D032
:400F40006400094B1C19258104E06400064B1C190023238104BC9046F0BDC0463C110020BC0B00200C230020441100200823002010B5FFF793FF10BD10B5002409E0210090
:400F80000548FFF7CDFE002802D02000FFF7F0FF0134002CF3D010BD4011002010B5102000F0D4FC01221E4B1A601E4B1878C0B2FFF782FE1C4B1B785BB2002B05DA1A4AB1
:400FC000137801218B43137025E0164C2078C0B2FFF7B2FE20702378002B05D1114B1878C0B2FFF701FE16E00F4B1A7801218A431A701B785B060ED500220C4B1A7006E042
:401000000B4AD15C0B4AD1540133084A1370074B1B78002BF4D0102000F08EFC10BDC046140028403E1100203811002055110020002300204011002010B50A2000F07CFC75
:4010400010BDC04610B500F01DF810BD10B5044A1368802109060B431360FFF7EDFF10BD0000254010B5064B1B78002B04D1FFF7E9FF0122024B1A70FFF7E8FF10BDC046C2
:401080005811002010B50024184B1C60184A194B1A60194B194A1360194A1460194A1460194A1360194B1C600A2000F04FFC03210A2000F073FC16490A2000F05DFC154BBD
:4010C0001C60154B1C60154B1C60154B1C60154B1C60154B1C601022144B1A70144B1C80144B1C60144B1C6010BDC046000025406408008060002540070100800003254083
:4011000004032540100325400002254004022540191E0000C80E2540880E2540480F2540080F2540C80F2540880F25400E2300201C2300202C2300201423002010B50E4A89
:4011400013685B005B08136000230C490B600C490B600C4804680C49214001600B490B600B490B6010210B4B19701368802109060B43136010BDC0460000254068002540CA
:401180006C00254060002540FF5CFFFF880F2540C80F25400E23002010B504000368002B09D0012000F038FC2368013B2360002B03D0002003E0002001E08020000610BD7B
:4011C00010B5002839DBC023034208D00022284B1A601032274B1A70002310243DE0C3070FD5244B1B781B072BD5234B1B685B0001D5002300E0012310211E4A11700124D3
:401200002BE0C30520D4830722D4C30605D51022184B1A70002300241FE0164B1B781B0719D5144B1B78DB0701D5252200E02422104B1A70002300240FE001238024240637
:401240000BE00123012408E001238024640004E00023022401E000230024012B02D1FFF76DFF02E0054A064B1A60200010BDC046680025400E230020600025401703000084
:40128000000F254070B582B004000D001600244B1B78102B40D10A2000F058FB214B1B68DB0734D4FA239B005E43019600221E4B1A601E4A1E4B1A601E4A1F4B1A606400B8
:4012C000FF231C40002D03D12422154B1A7004E02522134B1A7001231C43184B1C600222174B1A60124B1C680823FF3320001840144B1B68C02423401843040001A8FFF7ED
:401300004BFF2043EED0FFF75BFF040000E008240A2000F011FB00E00424200002B070BD0E23002064002540080F254017030000000F2540ED0F0000C00F254040022540BA
:4013400068002540400F254010B582B0104B1B789B061AD5FA239B00584301900D4B1B689B0601D5182200E010220B4B1A600B4B18681223FF331840040001A8FFF70CFFE2
:401380002043F4D0FFF71CFF00E0042002B010BD0E2300206400254068002540000F254010B582B00D4B1B789B0613D5FA239B00594301910A4B18600A4B18680823FF33C7
:4013C0001840040001A8FFF7E7FE2043F4D0FFF7F7FE00E0042002B010BDC0460E23002040022540000F254010B500F033FA10BD10B50023044A1370044A1370044A1370FC
:40140000FFF7F2FF10BDC0467B230020742300207A23002010B590B0040014221F490BA801F06FF91E4B1B78002B04D1FFF7E0FF01221B4B1A70002C2CD01A4B1C6008A870
:4014400005AA426006AB0893002101811B311980598017391971082313701231694401F09DFE002817D1002302930193053300930BABAE2212010C490C4801F0E5FD002806
:4014800009D101220A4B1A7012321D2109480EF079FB00E0012010B010BDC046344401006011002034230020C00000201D160000702300204844010010B5022833D81E4B40
:4014C0001B78042B31D11D4B1B785B0730D400280BD11B4B1A004032002111828022596C0A805B6C20325A800EE001280CD1144B1A00403296211182C822D200596C0A8005
:401500005B6C8022D2015A800E4B18700C4840300BF05CFF00280DD1084A117804230B43DBB2137006E0012004E00420FF3001E00420FF3010BDC046702300207B2300207E
:40154000C40B00207A2300207047C04603784078000218437047C04670B5050083890F2B1FD1043031332A0000210EF023FB041E11D16868FFF7EAFF830706D50A4B1B6866
:40158000290082204000984705E0074B1B6829000620FF309847054A137801218B43137000E00024200070BD342300207B230020024B00225A701A707047C046782300201C
:4015C00010B582B00400FFF7C7FF0A4B1B78DB070ED4002809D001A912238B70A3890B80C87020680DF054F802E020680DF0DAF802B010BD7B2300208379002B07D0002059
:401600000BE0C25C002A07D10133DBB200E00023052BF6D9002000E001207047F0B583B005000C007C4A117801230B43DBB213704C2800D9DEE08300784AD3589F4601AE3B
:401640000727377000237370300003F0B3FC377001237370300003F0ADFC01F0BBFC704B1E683000FFF7C8FF00280CD0300001F0BDFC6B4E00213068FFF766FF3068012108
:40168000FFF762FF2AE0674B1F78674B18788001FC263601020032403F2139401143634B1B781B03F822520213401943604B1B785B04FE22120413400B435E4E33701A0A60
:4016C00072701B0CB370300001F090FC00213000FFF73AFF01213000FFF736FF03200BF019FD01A83F230370002343700BF030FD0422514B1A707DE02278504B1A7079E0A3
:401700002378002B76D16378002B06D14C4B0022DA809A804B4A1A6063603F4A137801218B43137066E03C4B1B789B0662D4464B1B78102B02D10522434BDA70434B1878B3
:4017400041490BF005FE01AB1880002804D0404B1B6801A9362098472F4A117801230B43DBB2137046E00222334B1A7042E00422314B1A703EE0304B1B78022B3AD0264ABD
:401780001278D20736D5244A1278520708D50322294B1A70204A137804218B43137029E01D4A1278120708D50422234B1A701A4A137808218B4313701CE0032B1AD104224D
:4017C0001D4B1A7016E002222100204800F099FF00221A4B1A700DE0FFF7EAFE0AE06188162900D9172120880CF05CFF02E02000FFF7E6FE084B1A7811231A4209D0064A54
:40180000137801218B431370114B1B6821002800984703B0F0BDC0467B230020E4460100180C00207CF2FF0F7DF2FF0F7BF2FF0F78F2FF0F1C0C0020702300207423002072
:4018400064110020A00B0020340D002078230020342300207047C046044A1368DBB201218B430840184310607047C04600030440024B1B68012018407047C046040304400A
:40188000044B1B68002BFBDB0002034B1843014B186070470000014040000080034B1B68002BFBDB024A014B1A607047000001404000004010B5064A1368072423400002B2
:4018C0001843CB00FF2119400143116010BDC04600030140044B1B68002BFBDB0002034B1843014B186070470000014041000080034B1B68002BFBDB024A014B1A607047E7
:40190000000001404100004010B5064A13680724234000021843CB00FF2119400143116010BDC04604030140024B1B68012018407047C0460C002E401F2318401E3B834020
:40194000014A13607047C04600E100E01F2318401E3B8340014A13607047C04680E100E01F2318401E3B8340014A13607047C04680E200E001BE704770B504000D001F2853
:4019800002D90020FFF7F6FF1034A40080239B059C4664442068256070BDC04670B504000E00032902D90020FFF7E4FF1F2C02D90020FFF7DFFF03252540ED00063500F056
:4019C00024FAA408A400074B9C46644421680323AB4099430B003100A9401943216000F018FA70BD00E400E010B5040006E0084B586800F001FA074B9C46644480231B02E9
:401A00009C42F4D8024B9868604300F0F5F910BD3C0D00200080FFFF10B5034B1B7B584300F0EAF910BDC0463C0D0020F0B557464E46C0B483B0040000F0E7F90190E71E40
:401A40002D2F74D83F4B1B78DBB29C4208D83E4B1B78DBB29A463D4B1B78DBB2994631E03B4B1B78DBB29C4208D83A4B1B78DBB29A46394B1B78DBB2994623E0374B1B78B1
:401A8000DBB29C4208D8364B1B78DBB29A46354B1B78DBB2994615E0334B1B78DBB29C4208D8324B1B78DBB29A46314B1B78DBB2994607E02F4B1B78DBB29A462E4B1B7825
:401AC000DBB299462D4BDE5D2F2E09D92A2C07D919222B4B1A60052000F08EF9192503E0274B1D683F231D40B54206D9234BDA5D234B1A60052000F07FF91F4B9C466444D0
:401B00002378DBB21F4A13601F4B52461A601F4B4A461A600520FFF77FFFB5420AD2174BDA5D174B1A60052000F066F902E00020FFF720FF019800F06CF903B00CBC914605
:401B40009A46F0BD40F3FF0F41F3FF0F42F3FF0F43F3FF0F44F3FF0F45F3FF0F46F3FF0F47F3FF0F48F3FF0F49F3FF0F4AF3FF0F4BF3FF0F4CF3FF0F4DF3FF0F2448010082
:401B80002CFF0B4028FF0B401CFF0B4020FF0B4010B504000F4A116801230B4313600E4A0E4B1A600E4A1368802109020B431360002809D100200CE00120FFF72DFFFFF73B
:401BC000B3FE002804D1013C002CF5D1102000E0002010BD60F02E400220000078002E4010002E40034B1868C0231B02184000D00120704700010B4010B50D4B1A680121EC
:401C00008A431A601A68022082431A60094A10683024A043203C204310601068093CA043014311601A68802109060A431A6010BD00F02E4000FF2E4070B51D4B1B6801242E
:401C40001C40002802D0012816D02BE0184B19680122914319601968022081431960154B19682E3081432038014319601968093881430A431A6018E00D4B1A6802218A4399
:401C80001A600C4A10680725A84301431160116830208143103801431160196801220A431A6002E00020FFF765FE200070BDC04600F02E4000FF2E4010B500F0A6F8044A01
:401CC0001368C02109020B43136000F0A2F810BD00010B4010B500F098F808490A68084B1A408024E40122430A600A6813408022120213430B6000F08CF810BD00010B4043
:401D0000FF3FFFFF70B5050000F07FF80400FFF769FF002803D0FFF7DDFF012100E0002108482840084A1568084B2B40184310601368012901D1FFF7BFFF200000F069F8D8
:401D400070BDC0460404040010020B40FBFBFBFF10B5244B1B685B0715D5234B5B685B070ED5224B596A042001401F4C62688A4362605A6A82435A629B69002B00D09847E2
:401D80000420FFF7BFFF174B1B685B0518D5164B5B685B0510D5154B596A8022D2001140114842688A434260596A114A0A405A62DB69002B00D098478020C000FFF7A2FF1D
:401DC000084B1B685B030CD5074B5B685B0304D5064B1B6A002B00D098478020C002FFF791FF10BD10020B40500D00206C110020FFFBFFFF000000000230800803D00138E8
:401E0000FDD1C046C046C0467047EFF3108072B6704780F31088704710B5AF4B1B68002B00D09847AD4B1B68DB0702D50022AC4B1A60AC4B1B789B0628D5AB4B1B68DB0594
:401E400007D5AA4A1188C0239B000B431380012300E00023A44A1268D20706D5A34A118890239B000B4313800123002B0FD09D4A1278D20701D5012200E002229B490888B9
:401E800002430A800021974A117000E00023954A1278920600D417E1934A1268D20611D51022934B1A608F4B1B78DB0701D5012300E002238D4A11880B4313801022894BBC
:401EC0001A7007E1874A1278120720D5864A126892070AD50222864B1A60844A118888239B000B431380012311E07E4A1278D20703D525217B4A117009E02421794A117032
:401F00007C4A1268002A02D014397B4A1160754A1278520700D4AEE0724A1278D20749D5764A1268120727D5754A1268754909681F240C40744909686418141B082C09D86D
:401F4000002C16D1714A1168714B0B401360012308340EE008240CE06B4A11686D48006841186D480068C0B20870116801311160013C002CF0D119E0604A1268520715D5E9
:401F8000614A116863480068411863480068C0B208701168013111601168594A1268914203D204215D4A116000E001235C495D4A116060E04C4A1268920726D502224C4B9D
:401FC0001A6059490B681D321A40096880231B020B4000D001239B18544A1168CB1A13601268534B1A60414A118884239B000B431380504B1A68802149020A431A601968ED
:402000004D4A0A401A60012335E04C4A1268D2061ED427E0454A1168364A126891421DD2344A1268013A414909688A4204D1402243490A6030490A603C4A1168414800686D
:4020400041180978C9B240480160116801311160354A12681F210A40082ADBD11021384A116008E0354A1268520604D52F4B1A682F4B1A600123002B2CD0244A1168244BDE
:402080000B4013600023314A13601B4A1360304B1B789B070ED5134B1B78DB0701D5092300E00A23114A11880B43138060220D4B1A700FE0274B1B689B0601D5182200E056
:4020C0001022164B1A6005E0064B1B78DB0601D4FFF734F810BDC0465C1100208C0E2540880E25400E2300200C0F25401C230020000F254018230020880F2540CC0F25409D
:4021000028230020080325402C23002060002540FFFEFFFF202300204003254068002540ED0F0000C00F254008022540102300201423002004022540FFFFFEFF8C0F25400E
:40214000800F25403023002040022540C80F254024230020640025400160704701607047324B1A781202324B1B781A43314B1B781B02314909780B4330498B4201D1072A67
:4021800006D0D42109018B4206D1042A04D102E02B4B042200E02A4B2A490B602A4B1A602A4B1B781B022A4A1278134380229201934202D0002B02D002E0264B00E0254B0E
:4021C000254A1360254B1B781B02254A12781343244A934205D0244A934204D0052B05D103E0224B02E0214B00E0204B204A1360204B1B681B09204A1268AA2A15D1012BB7
:4022000013D9164B1B780E2B0FD11C4B1B781B021B4A127813431B4A13601B4B1B781B021A4A127813431A4A1360704759F1FF0F58F1FF0F5FF1FF0F5EF1FF0F580B0000BC
:40224000580D00006C002E4074002E405BF1FF0F5AF1FF0F0220000078002E405DF1FF0F5CF1FF0F0F0F000005050000050F000080002E40EC0F00F0E00F00F06DF2FF0F6A
:402280006CF2FF0F84002E406FF2FF0F6EF2FF0F94002E4010B5FFF7BFFB10BD10B5FFF7A3FB10BD10B500F04BF810BD10B500F04FF810BD10B500F04BF8034800F02AF896
:4022C000032000F02DF810BD9923000010B5024800F046F810BDC0469923000000487047020200002B2070472B2070472B2070472B2070472B2070472B2070472B20704740
:402300002B2070472B2070472B2070472B2070477047C046014B18677047C0460000002010B50400FFF771FD044A1368C0218B43A4011C431460FFF76CFD10BD0CE400E017
:4023400080225201014B1A607047C04600E100E080225201014B1A607047C04680E100E010B50400FFF7F4FF2000FFF7D3FF0320FFF7D6FFFFF7E4FF10BDC04610B5FFF77C
:4023800044FD044A136804218B43136030BFFFF740FD10BD10ED00E010B511F099FF10BD002243088B4274D303098B425FD3030A8B4244D3030B8B4228D3030C8B420DD3A7
:4023C000FF22090212BA030C8B4202D31212090265D0030B8B4219D300E0090AC30B8B4201D3CB03C01A5241830B8B4201D38B03C01A5241430B8B4201D34B03C01A524198
:40240000030B8B4201D30B03C01A5241C30A8B4201D3CB02C01A5241830A8B4201D38B02C01A5241430A8B4201D34B02C01A5241030A8B4201D30B02C01A5241CDD2C30967
:402440008B4201D3CB01C01A524183098B4201D38B01C01A524143098B4201D34B01C01A524103098B4201D30B01C01A5241C3088B4201D3CB00C01A524183088B4201D3C0
:402480008B00C01A524143088B4201D34B00C01A5241411A00D20146524110467047FFE701B5002000F0F0F802BDC0460029F7D076E7704703460B437FD4002243088B42EB
:4024C00074D303098B425FD3030A8B4244D3030B8B4228D3030C8B420DD3FF22090212BA030C8B4202D31212090265D0030B8B4219D300E0090AC30B8B4201D3CB03C01A29
:402500005241830B8B4201D38B03C01A5241430B8B4201D34B03C01A5241030B8B4201D30B03C01A5241C30A8B4201D3CB02C01A5241830A8B4201D38B02C01A5241430AED
:402540008B4201D34B02C01A5241030A8B4201D30B02C01A5241CDD2C3098B4201D3CB01C01A524183098B4201D38B01C01A524143098B4201D34B01C01A524103098B42EE
:4025800001D30B01C01A5241C3088B4201D3CB00C01A524183088B4201D38B00C01A524143088B4201D34B00C01A5241411A00D201465241104670475DE0CA0F00D04942DD
:4025C000031000D34042534000229C4603098B422DD3030A8B4212D3FC22890112BA030A8B420CD3890192118B4208D3890192118B4204D389013AD0921100E08909C309FC
:402600008B4201D3CB01C01A524183098B4201D38B01C01A524143098B4201D34B01C01A524103098B4201D30B01C01A5241C3088B4201D3CB00C01A524183088B4201D3FE
:402640008B00C01A5241D9D243088B4201D34B00C01A5241411A00D20146634652415B10104601D34042002B00D54942704763465B1000D3404201B5002000F005F802BD1F
:402680000029F8D016E770477047C046014B18687047C046101100200E4B70B500251E000D4CE41AA410A54204D0AB00F35898470135F8E712F0E8F8084B00251E00084CB1
:4026C000E41AA410A54204D0AB00F35898470135F8E770BD9448010094480100944801009C48010030B50024A24208D0035D651C0C5DA34201D0181B02E02C00F4E70020D9
:4027000030BD002310B59A4203D0CC5CC4540133F9E710BD03008218934202D019700133FAE770470EB410B59DB002A9029008610B48822488604861012040421FABC881A1
:40274000084804CBA400006801938C8100F076F80023029A13701DB010BC08BC03B01847FFFFFF7F101100200023C25C0133002AFBD1581E70470000F0B58E6885B0070052
:402780000C00039201939E4243D890238A89DB001A423ED003250969236801985B1A029363695D43EB0F5D19029B6D1001331B18AB4200D91D00530510D52900380000F048
:4027C00037FB061E14D0029A2169FFF79AFFA289194B134080221343A38112E02A00380000F086FB061E0CD12169380000F0D4FA0C23402201203B60A38940421343A38131
:4028000017E0029B2661F61826606561019EED1AA560019BB34200D21E0032000399206800F0A5FA0020A3689B1BA36023689E19266005B0F0BDC0467FFBFFFFF0B59FB092
:40284000029005938B890F0016001B0610D50B69002B0DD1402100F0EBFA38603861002804D10C23029A01381360D8E040237B61002306AD6B6120336B761033AB76340032
:402880002378002B03D1A31B049312D003E0252BF9D00134F4E7A31B320039000298FFF76BFF431C00D1B4E06A69049B944663446B612378002B00D1ABE001220023524299
:4028C0006A6002A95432521801342B60EB60AB601370AB65534E21780522300000F03CFA002807D00123801B83402A68013413432B60EFE72B68DA0604D55322202102A868
:40290000121811701A0704D553222B2102A81218117022782A2A03D0099B00200A210EE0059A111D12680591002A01DB099204E05242EA60022213432B6001340BE022783F
:40294000303A092A04D84B4301349B180120F6E7002800D0099323782E2B1ED163782A2B0AD1059B02341A1D1B680592002B01DA01235B42079310E000230A201A000134D4
:402980006B6021783039092904D84243013452180123F6E7002B00D00792234E21780322300000F0D9F9002806D04023801B83402A68013413432B60217806221B48661C55
:4029C000297600F0C9F9002812D0194B002B06D10722059B073393430833059314E005AB00933A00134B2900029800E000BF07E005AB00933A000F4B2900029800F08AF846
:402A00000390039B013304D06B69039A9B186B6135E7BB890B985B0601D5012040421FB0F0BDC046544801005A4801005E4801000000000079270000F7B5170001938A683E
:402A40000B6900900C00934200DA130022003B6043321278002A01D001333B6023689B0602D53B6802333B60062523681D401ED0230043331B785A1E9341226892061CD5FC
:402A80003020E1184331087021005A1C45310978A2184332023311700FE022000123193201990098089EB047431C0ED00135E3683A689B1A9D42F0DBDAE72200019943326E
:402AC0000098089DA847431C02D10120404220E006232068E1683A6803400025042B03D18D1AEB43DB171D40A3682269934201DD9B1AED180027BD420AD0220001231A3215
:402B000001990098089EB047431CDED00137F2E70020FEBDF0B58BB006920A0043320793059004920A7E0C00109B6E2A00D1ABE011D8632A22D009D8002A00D1B5E0582A83
:402B400000D0C5E045310A70814A4FE0642A1DD0692A1BD0BCE0732A00D1AAE009D86F2A29D0702A00D0B3E0202209680A43226037E0752A1FD0782A33D0A9E00E001A6814
:402B80004236111D196013683370A4E021681A68080606D4490604D5111D19600023D55E02E0111D19601568002D3BDA2D23049A6D42137036E021681A68080606D449067C
:402BC00004D51568111D1960ADB202E0111D196015685F4B227E039308276F2A1DD00A271BE022007821453211705A4A19680392081D226818600D68100602D4500600D592
:402C0000ADB2D30702D520231A4322601027002D03D1202322689A4322602300002243331A7002E00A274A4B03936368A360002B09DB0422216891432160002D05D1049EF5
:402C4000002B11D07BE0002D79D0049E28003900FFF72CFC039B013E5B5C280033703900FFF79EFB051EF1D1082F09D12368DB0706D563682269934202DC3023013E3370B3
:402C8000049B9B1B23612BE009681A68080607D4490605D5111D19601368A28A1A8004E0111D1960136862691A600023049E236116E01A68111D19601668002162683000F7
:402CC00000F04AF8002801D0801B6060636803E0260042363270012323610023049A1370079B09AA00932100069B0598FFF7A4FE431C02D10120404227E02369320006995C
:402D00000598079DA847431CF4D0236800259B070FD4099BE068984217DA180015E022000123193206990598079EB047431CE1D00135E368099A9B1A9D42F0DBE9E7260055
:402D4000039B42361B7833708EE70BB0F0BDC0466548010076480100C9B28218904204D003788B4202D00130F8E70020704710B5884202D98B18984201D3002305E09B1A83
:402D8000013A08D3995C8154FAE7934203D0CC5CC4540133F9E710BD70B50500002944D00C1F2368002B00DAE418280000F0D8F81E4A13681100002B02D16360146031E049
:402DC000A3420DD92268A018834203D118685B688218226063600C6024E0A24203D813005A68002AF9D11E689819A0420BD12168711858181960824214D1106852684118EF
:402E000019605A600EE0A04202D90C232B6009E021686018824203D1106852684118216062605C60280000F09CF870BDC4220020032370B5CD1C9D43083506000C2D01D2AC
:402E40000C2501E0002D01DBA94202D90C23336048E0300000F084F8234B1C681A002100002913D00B685B1B0DD40B2B02D90B60CC181EE08C4202D1636813601AE04B68FE
:402E800063600C0016E00C004968E9E7174C2368002B03D1300000F051F820602900300000F04CF8431C18D00323C41C9C43A0420DD12560300000F054F8200007220B30FC
:402EC000231D9043C31A0ED05A42E2500BE0211A300000F033F8431CEBD10C233000336000F03FF8002070BDC4220020C0220020F8B506000C001500002904D11100FFF763
:402F000097FF040018E0002A03D1FFF745FF2C0012E000F027F885420ED929003000FFF787FF071E07D021002A00FFF7EAFB21003000FFF731FF3C002000F8BD002370B525
:402F4000064C050008002360FDF736FD431C03D12368002B00D02B6070BDC0467C230020704770470B1F1A68101F002A04DA891804390B68D018043870470000134A1088A0
:402F8000810703D08107890F401A001D11791030484381B25088820703D08207920F801A001D800040180A494030098980B2CA0701D0503080B2890706D504495422091F79
:402FC00009785143081880B2704700005E0D0020A011002010B501F00DFF10BD10B501F00FFF10BD10B500F05BFA10BD10B50749044609780220002907D1204601F050FFB7
:40300000002802D120460AF089F910BDFC0E002070B504460120002C12D02368002B0FD0616800290CD0074D06222889208118462968FFF766FB69686068097801700020FC
:4030400070BD0000A0110020FFB585B0002768460E9D07734F481C460078002802D0082009B0F0BD10990F9801900095029105A807C800F007F90028F2D16946264603AB4D
:4030800084460873002C19D0002115E08A00B75A082F09D990198078002805D0083FB7521878401C187005E0002914D00027B75290198770491CC9B2A942E7D36046002875
:4030C000CED10F98002809D0109901F043FA002804D00120C4E701208446EFE701F090FE2D480021416081600599016021888180022D07D3A1798171A17AC171A1890181DB
:40310000218A418100211EE0481C19E082008B00A75AE65ABE46BE4211D26F463E80B4461E190296B678BE7001967646E6521719029EBB78B3706646A652019EBE70401C5B
:40314000A842E3D3491CA942DED3134822460C3000906846037B0799069800F01BF90028B8D168460B4C007B60700B480C3001F077FE0028AED1084907480C3107F0A4F9A3
:403180000028A7D107F0BEF90028A3D10121217066E70000580D002094110020F8B5054636480F460078002802D002242046F8BD002F60D000243249002D16D02A89D007C2
:4031C0000DD02868002808D003881B3BE12B04D24088FB2801D81B2801D2012409E0900707D56868002804D1F7E70020088108604860002CDAD122482E8906811F481B21BE
:40320000801D01804180042101711C490020891C0870F00705D019480622801D2968FFF770FA1749B00703D56A68144812788270124D0E46AD1D281F0D60486001F056FEDC
:40324000284601F045FE30890DF0C4FD30890CF0ADFF28880CF0B0FF30890DF025FF03461033FFF78BFE1F21C018890140183880A91F88809AE7012498E70000580D002068
:40328000A0110020FFB58446384F1C460020BB883F78054602460646002F11D100290ED0029999420BD36146002908D0002C06D00A99002906D02E4B0B99994202D2012038
:4032C00004B0F0BD002144E0AB001F19BF78002F3BD0E35A002B38D07B43591889B22B0000F04AF8050410161C253100A7782388BC46FF27233BEB37BB4222D26346032BC2
:403300001FD322E0A388002B1FD0302B19D31CE02389002B19D0282B13D316E0A289002A13D01346134F233BBB420AD20DE0268A002A0AD033460F4F233BBB4201D296427A
:4033400003D901200EE0002001E000280AD16D1CEDB2099B9D42B7D31C2463435B1802998B42ACD89642AAD8AAE70000580D002079020000BAFF000030B47446641E257883
:40338000641CAB4200D21D46635D5B00E31830BC18470000FFB583B0002469460C801F4606468C80002806D00598002803D004983043800701D0012466E0002FFBD0344928
:4033C000049809888842F6D3FEF780FFFEF76EFF00F012FC002855D100F07AFD002851D12C49084601F0EAF805042D0C4AD12A480499066081800021C18007810C98007AC9
:40340000C00704D0684601F014FD040007D10C98007A800703D501A801F014FD0446BF1DFEB2002C20D13146059800F05DF804001AD10DF047FE040016D16A461088928873
:4034400008368518144AF1B29088D288AEB29319984207D3401B801A80B201F09FFB050007D000E0FF25012400F05EFA002D04D008E0F8B200F01CF9F6E700F081FA07490F
:403480000120087000F0CAFB204607B0F0BD00005C0D0020D5350000AC110020640D002010B503480078012801D101F019FA10BD640D002070B5084B0446DA889E880320A1
:4034C0005518B54206D8186880182060D8884018D880002070BD0000AC1100200148008970470000AC110020F0B587B007460D4600208900009006916846FFF7DBFF8446BE
:4035000000285DD1304800990160002117E02E4B88001A680629115406D22C4C0419667882185670628805E0C419203CA67A8218567022891B68C018491C4280C9B2A942CE
:40354000E5D300242DE0601CC2B2059025E01E4FA30039689600581840887118039604904E88B04217D938466F46FE80B6464F786E4677710297049F4F800168039F5E184F
:40358000767879184E700168764659184E800068029F18184770521CD2B2AA42D7D30598C4B2AC42CFD36046002809D168460699FFF780FF8446002802D1054900980860D2
:4035C000604607B0F0BD0000680D0020C04801006C0D00207047000010B5002809D005494A68002A05D0011F08788000105801F083FA10BD680D002010B50446FFF76EFF44
:40360000C0B2801DA0420CD307484068002808D0A100405801F0E2F9002801D00470001D10BD002010BD0000680D0020F8B516460D460446FFF752FFC0B2801DA04203D232
:403640000020C0430090F8BDB2B2E9B2684601F0EBF90099481C03D0024AA000526811500098F8BD680D0020F8B50746FFF736FF801DC6B20A49002005460C680DE0617875
:40368000002907D06188B94202D32078FFF7B4FF002804D1241D6D1CEDB2B542EFD3F8BD680D002010B5002801D0FFF795FF10BD70B506460948002504680BE06178002952
:4036C00005D062882078121D0023FFF7AFFF241D6D1CEDB2B542F1D370BD0000680D0020FFB581B00A9F16000C4620D000F0F2F8054604281BD0002F0CD03846FFF7B4FF43
:4037000020492A0151184860002810D03A460499FEF7F7FF1B4928010E504618778101980570200406D47D20C000444304E0FF2005B0F0BD6404640C00F0BAF8074604284B
:4037400007D000F04FFAA0420BD800F04BFA201A03E0204600F0AAFA0020F06035720020E6E700F03FFA009000F0B6FA00980121001B009000F0ECF802493A01511800980B
:40378000C860E6E7B8110020F8B5060116483418217A042903D0E068002802D017E00020F8BD00F01FFA054600F096FA00F0A0F804280CD001010C480F18F8680021451964
:4037C00000F0C6F80020F860284600F06FFA6068054D002801D0FFF765FF042020720020A8516081E060DAE7B8110020FEB500266A46304601232549050169180D7A042D05
:4038000002D0C96800291BD000211154401CC0B20428F0D300246846005D002830D01B48210108184189476805680291002101604160042241810272C160002E02D015E024
:403840001354E3E700F054F804280ED001010F4808180190C6680021304600F079F801980021C160304600F021FA0126002D07D038460299A847002F02D03846FFF712FF8C
:40388000641CE4B2042CC6D3FEBD0000B81100200EB5002005216A460090118150810348694600680EF073FA0EBD0000700D0020074A0020010189180B7A042B02D0C968D9
:4038C000002903D0401CC0B20428F3D370470000B81100200549002002015218127A042A03D0401CC0B20428F6D37047B811002030B50A4B04200A4C00210A011219157A07
:40390000042D06D0D268002A03D09A4201D808461346491CC9B20429EFD330BDFFFF0000B81100207047000030B50020074C05460423020111190B72A5504D60401C4D8153
:40394000C0B2CD600428F4D330BD0000B811002030B5094C00231A011219157A042D04D0D568002906D02D18D5605B1CDBB2042BF1D330BD2D1AF7E7B81100200020704729
:403980001CB5002469460C70142001902346054A05480EF001FA04480068401C00D1FF2420461CBDFD390000700D00203EB5124A0146FF2000230124126800290DD0012967
:4039C00014D0042908D104206946009308814B8110460EF0DCF980B23EBD6846009304814381694610460EF0CDF9F4E768460093048143816946EBE7700D002070B5458903
:403A00000468416800890300FFF7B6FC08280509091E22282628002005F008FC1EE0022908D0C8B22A4621460CF014FB2046FFF739FE13E002202A4621460CF00BFB2946DA
:403A4000204600F00DF809E000200DF09FFE05E02046FFF7CBFE01E0FEF75AFC002070BD014B0022DB681847740D002070B5448905680089022803D0032809D0FF2070BDDF
:403A80002246094C0023A46829460120A04708E0FFF7A4FA241DA2B200232946022006F0C6FB002070BD0000740D002070470000024800214160018041807047740D0020DC
:403AC00070B50C46002186B016460391012802D0022859D116E003A9012006F0FDFB01281BD1039D324621462846FEF70AFE0095287801900220694608814E816846FFF776
:403B0000B5FF41E0214D002B686809D0049004A9022006F0E1FB01281DD0022006B070BD002812D0298840182146FEF7EAFD28880024801980B228806988091D884206D1C9
:403B40002C801348FFF792FF03E00320E6E788421AD96C6018E004986860E278A378110219430B4A698000231060E3565360032313815181A1788170E178C17061784170B4
:403B800021780170042028800020C7E7740D0020F81100203EB515460C46022803D004280CD000203EBD0091019002206946088107484A8100680EF0EAF807E00CF04AFAD2
:403BC000044B0022DB6829462046984701203EBD700D0020740D0020014AD16090607047740D0020034801688068081A0A214843000970470412002010B5FEF75BFB4C2257
:403C000004490548FEF77DFD03490120C870002010BD0000DC4801000816002010B5FEF741FB10BD70B5134C2368002B08D0207B1149C20705D04008400020738868A080F3
:403C400070BD88680B4AA18880B29268814203D90A4D691A091802E0814202D2411A5118A160A080A0689842EAD30EF0ADF800F013F870BD04120020C0102E40FFFF0000A9
:403C800010B508461946FFF7A7FF10BD704710B5FFF780FF10BD000003480021016041608160C1607047000004120020024610B5FF20002A0CD0FFF7EFFF064C0321207BE7
:403CC0000843207310010A21FEF7F0FB2060002010BD00000412002000B504480A21806848430209FFF7D8FF104600BD041200200248007B8007C00F70470000041200205F
:403D000010B54B490868002802DA4A4B01221A70022290430860484800694549C00B4031096A0246C907C90F0A4259D0012000F097FA3F480E216C30FEF710FA3E482021C0
:403D40008430FEF70BFA3C4814219C30FEF706FA3948FF21C131A430FEF700FA3648FF212F31B030FEF7FAF933483449BC30FEF7F5F931483249AC30FEF7F0F930492E489B
:403D8000491CB430FEF7EAF92B482E49B830FEF7E5F929482C49CC30FEF7E0F926482B490830FEF7DBF924482949A830FEF7D6F9214828498830FEF7D1F91F4826498C304D
:403DC000FEF7CCF91C481921C9029030FEF7C6F9FEF7C6F9FEF782FAC0B2022812D01FE000290BD0002101420AD0114801216030FEF7B4F90120FEF751FA97E70121F2E7C1
:403E0000FF2010BD15491648FEF7A8F914481549001DFEF7A3F9124800210830FEF79EF954200449C043891C0870002010BD000000F02E40840D002000002E40320300001D
:403E40002F3F00003102000010520000EC160000FA12000031D000003AE300009956000080012E40F80F000070B50646581C80B245086D00002408E0304600F0C1F81055CD
:403E8000000A1119A41C4870A4B2AC42F4D3D80705D0D0182038D15CC47FD454C17770BD30B50A4C002100195B1E07E0541864782502545C2C430480891C89B29942F5DBE8
:403EC000994201D1515C018030BD000000102E4010B5FF2000F0C4F90F49FF2048700E481021801D41800121417001700A490020C91C4870FFF704FF04000AD100F010F9B2
:403F000007210648FEF728F9044807211830FEF723F9204610BD0000840D0020CC112E4070B5002405465B1E0AE0284600F068F8010A161971702D1D1055A41CADB2A4B205
:403F40009C42F2DB9C4203D1284600F059F8105570BD000070B500210A4D5B1E0AE0541864782602545C344346193480001D891C80B289B29942F2DB994202D1515C40196E
:403F8000018070BD00102E40F0B50599091FCFB200217E1E0BE0541864782502545C2C43164D45192C80001D891C80B289B2B142F1DBFC0712D01C78515C24020F4A0C4364
:403FC00081180C809C785D78001D210280B2294384182180001D80B2D9780CE059781A7809021143054A84182180001DD9789B78090280B2194380180180F0BD00102E4060
:40400000014940180088704700102E4010B50B490020487000F084F8002000F047F9002000F034F907210648FEF796F8044807211830FEF791F8002010BD0000870D002063
:40404000CC112E4010B50B46062812D006DC01280CD0032801D1FFF7D9FF10BD0A28FCD00B28FAD105480078107010BDFFF730FF10BD1146184600F035F910BD8A0D0020F9
:40408000F8B5244DAC6A0127A007234E002816DA307806280ED1286A384328621F480069F903084381B21D481030FEF757F8042000F0D6F8174802212830FEF74DF8E00718
:4040C00018D000F01FFF01280FD1002000F06CFF062000F0C5F81049FF20C91E48707078002802D1686B384368630A4801212830FEF732F8E0050BD53078042802D10520E4
:4041000000F0AEF80348FF2101312830FEF724F8F8BD000040F02E40870D002000002E4010B503212348FEF719F80120FEF7B2F820483038406A204C80076178800F8900F6
:4041400001431C480C38FEF709F86078002808D0401E022181401820FEF792FAC000083800E0B82081B21548FDF7F8FF1348032109021438FDF7F2FF10481149B830FDF70E
:40418000EDFF612189010F48FDF7E8FF0D480321001FFDF7E3FF0C490C48FDF7DFFF0B480B496038FDF7DAFF084801218838FDF7D5FF10BD70F02E408A0D0020D8102E403E
:4041C00090890000041E2E40FF0F000058122E40209000000848017806290BD140780749002803D1486B400840004863C86A01221043C86270470000870D002040F02E40E7
:404200000148007870470000870D002000B50300FFF7B2F8080D050D0B070507090D012000BD032000BD042000BD022000BDFF2000BD0000074A9168D26889B2064B92B2F1
:40424000994204D105498A4201D1012100E000210170704780002E4033D000003FE3000010B50446FEF722F8072C01D9FF2C01D102480470FEF716F810BD0000870D0020DA
:404280000149487070470000840D002010B5064A012805D01921C9021046FDF75FFF10BD1D21C902F8E7000090002E4010B50A4A141D012808D009491046FDF74FFF08499B
:4042C0002046FDF74BFF10BD04491046891CFDF745FF0349491DF3E788002E4031D000003AE3000070B50C460546FDF7F7FFC0B202280E49287804D0FF2810D04C280CD8BB
:4043000010E0FF2809D10A4AD0680004800F032801D0087807E09069000A553803E00878207070BD4F382070087070BD860D002000002E40F0B50122002834D0002932D05E
:404340000424420600D00524792342065B06D21800D0641C034600221EE00C2516466E43124D00277519AF72104F002ABB51696007D0661EB24209D10D4E86197606760EF8
:4043800005E05E06760E8027BE1B00E080269B198919521C2E81D2B2A242DED303480549006B002288611046F0BD00009014002079020000900D002018B50020694608707C
:4043C0000A48006900280ED0132149014018047E684604704F21C900054800F05BF8A04201D0012018BD002018BD0000900D002014120020074900200C2242435218927A7F
:40440000012A05D0401CC0B20628F5D3002070470120704790140020F8B50F000446164609D01A4D1A496868A04202D94018A04201D38E4201D90120F8BD39462046FEF74B
:4044400051F9002820D0324639462046FEF759F90E49F0B2012620318E7600210C220B4653430A4A9A1813895568EF18A74207D9641B1B1B9672834206DAC01A1469C0B231
:40448000491CC9B20629E9D30020F8BD9014002079020000034610B50020024604E09C5C2018521CC0B292B28A42F8D310BD000070B500F05FF8084C064A216907480D46CF
:4044C000FEF71FF905492846FFF734FFFFF774FF207070BD79020000900D002014120020002070470020054A002902D0012902D002E0906000E0D06000207047900D002073
:4045000070B5084C154608460549E26889182A46FEF7F7F8E0684019E06028B270BD000014120020900D00203EB50A226946FFF7E7FF044606480A2200686946FEF7D2F89D
:40454000002802D00020C0433EBD20463EBD0000940D0020002802D0044A914201D2FF20704703494A6108610020704779020000900D0020024800218160C16070470000AA
:40458000900D002070B5074C15460548A26880182A46FFF741FFA0684019A06028B270BD14120020900D002010B503490A220968FFF7E8FF10BD0000940D002010B50F4A34
:4045C000002313600E4A13600E4B18600E4801600E49012008600E490860000290600E490C4808600D4914300860FF381538506000F0BCF800F0CAF9002010BDC40D0020C3
:40460000AC0D0020D80D0020DC0D0020C80D0020B80D0020D8150020BC0D0020D00D0020014610B50020002910D0094B1A689C685118A14209D25868196080188A0704D05A
:404640008A07920F891A091D196010BD002010BDAC0D0020F8B50024164E671E321F3D463168136806E01422624310328A58521C1BD0641C9C42F6D36A1C14D02C4614221A
:40468000544322460C3288500C214843FFF7C8FF3168002808510AD031680020103408517068401C70602846F8BD2546E4E73846F8BD0000BC0D0020F3B50026F64381B075
:4046C00000281BDB1E490968884217D80299002914D01B4F142204463F1D54432546396810354859401C09D0FDF7E0FD38682F1F4159C359994203DBFDF7D4FD3046FEBD3B
:40470000214608310091465801590C20704308180C220299FDF7F5FF0948761C001D0068C159B14200D100260549009A091D865008684159491C4151FDF7B4FD0020FEBDCF
:40474000B80D0020002803DB07490968884202D90020C043704704491422091D096850431030085870470000B80D0020F0B500200D4A451E0346171F50600FE01426014607
:40478000714314680E1DA3510C461668083433511668083435511468401C635039688842ECD30020F0BD0000BC0D0020F3B50026F64381B0002841DB2349096888423DD837
:4047C000029900293AD0204F142204463F1D54432546396810354859401C2FD0FDF766FD3868415900292BD0211D009146580C21005971430F46C1190C220298FDF781FFF5
:4048000011480021001D0068761C00590C34C0190160416081600C48001D00680159B14200D100260849009A091D865008684159491E4151FDF736FD0020FEBD3046FEBD58
:40484000FDF730FDFAE70000B80D0020FEB504460D4600201E49089E0860471E009001900290002C11D0486885420ED2002A0CD0002E0AD0642E08D808460C3001681C2041
:4048800068430C18207A002801D03846FEBD0120226020721846FFF7DDFE6060401C13D06681A6810A4827610C3067610179A94200D205710021684601810A462846029BB5
:4048C00000F040F82846FEBD00202072DDE70000C40D002038B50124009400F039F838BDFEB50027164EFF433D4600240EE01C20316860430818017A002906D04068FFF77F
:4049000021FF002801D0254603E0641C3079A042EDDA681C12D01C2130684D434419FDF7C5FC69466068FFF741FF0546FDF7BAFC002DD9D1216868468847D5E7FEBD00006B
:40494000D00D002038B50024009400F001F838BD1FB500220C49541E0A60002811DB496888420ED808491C220C31096850430818406801A9FFF7A0FE401C02D0002004B043
:4049800010BD2046FBE70000C40D0020F0B50021114A4D1E174611710C3F0B46BD6016E008461C2460431668041D355114680646235014680836A3551468361DA353044685
:4049C00016680A34335318301468491C255078688142E5D30020F0BDD00D002038B500210091002811DB0F49097888420DDA0D4D04010C3529680859002807D0201D081887
:404A0000694600F06FF9002801D0002038BDFDF74DFC28680F34015D491E0155FDF742FC009838BDE00D0020F7B582B0002502986E1E06602E48D21C024017462D4A2C46EF
:404A400010460C380178106805E02301C358002B0FD0641CE4B28C42F7D3711C28D03401211D40180191039900F02AF900281FD101E02646F1E71F48016820460C300F522E
:404A80001C480399026820460E30115419480399026820460F3011540398784300F0A0F8144900280968085102D00024009011E001251AE00F48016801980818009900F04C
:404AC0002CF9002801D0012502E00098C0190090641CE4B203988442ECD3002D05D10298066004480179491C0171284605B0F0BDFCFF0000EC0D0020F8B50D4600216A4604
:404B00008C461180002839DB23490978884235DA214B04010C3319680A59002A2ED020460C300B5A801C0E5C184670438018954224D3854222D2002006E007465F43BF1849
:404B4000AF4206D0401CC0B2B042F6D36046002814D0114E271DC8190C366A46294600F006F900280AD168460088012808D030682946C01900F0D1F8002803D00120F8BDBB
:404B80000020F8BDFDF792FB30680F34015D491C0155FDF787FBF3E7E00D0020F8B50F46002400F031F8002817D10C4900220B460C334A600EE021011D680E466A501D6826
:404BC0000C36AA53B61C1D680F31AA551D68641C6A54E4B2BC42EED31A71F8BDE00D002000280BD0C01C074A81085068890053884118994203D893685160181870470020E4
:404C000070470000E00D0020F8B5064600200F4D009029700C0121466846FEF74BFC00280CD129460C3100980860301B001F84B221466846FEF73EFC002801D0FF20F8BD52
:404C40006C800098A8600020F8BD0000E00D0020F8B5002827DB19490978884223DA174C05010C342168485900281CD028460C30085A009028460E300E5C401C0E54206866
:404C80002F1DC01900F064F800280CD12068002445590EE0094829460C300068C01900F03CF8002801D00120F8BD00982D18641CE4B2B442EED30020F8BD0000E00D00208A
:404CC00030B50D4604000BD0A800FFF789FF6060002805D000202570C0436080002030BD012030BD70B50D46040005D0002D03D00220205E002801DA012070BDFDF7D6FA01
:404D00000221615E60688900405828606088401E6080FDF7C7FA002070BD70B50D46040007D0002D05D002212078615E401E814201DB012070BDFDF7B9FA6088401C00B241
:404D40006080616880000D50FDF7ACFA002070BD10B5040009D0227800216068FDF7DAFC0020C0436080002010BD012010BDF0B500231D46002802D00224045F0AE0012040
:404D8000F0BD46689F00F6598E4201D1012503E05B1CDBB29C42F4DA15700020F0BD00000148007870470000F40D00207CB505460024FEF713F9A8796946087000A80622AB
:404DC00029460130FDF79DFC0021684604F0F4FC0C2806D0072806D01F2806D0122806D006E0022404E0042402E0272400E0012420467CBD0148012141727047141700208E
:404E000010B500F05FF9FFF7FBF9FFF7FFF910BD70B504460025FEF7E1F8002C06D0A079012803D8214602F081FC00E00125284670BD01460120002902D05020088000204D
:404E40007047000001460120002905D003485422007850430880002070470000F60D002010B502460D49FE204870032410460DF0B1FA002810D10DF055FA00280CD105F01A
:404E800087FA002808D100F013FB002804D104F039FF002800D10024204610BDF40D002070B50025044600280ED0A07901280BD8FEF794F8A0790028204602D002F0C8FF66
:404EC00003E002F09DFF00E00125284670BD0000014610B50120002904D006220248FDF710FC002010BD0000000E002001460120002903D00878024908700020704700006B
:404F0000F60D00200148007A704700001417002038B504460120002C20D0617801291DD800290BD0FF25E535FEF758F80C4828180088C0B22070072803D00EE0FF25CD3562
:404F4000F2E70020694608706846FFF773F969460878012801D108202070002038BD000000102E40014A002192681047F40D002008B500226B461A7026280CD0094A3428BB
:404F800052680BD0352805D1900703D50021352005F0DAFA08BD19462620F9E7D007F9D03420F5E7F40D0020014908727047000014170020F8B504460120002C26D0617867
:404FC000012902D92278092A20D8002905D0FF25E5352078092803D004E0FF25CD35F8E708202070FDF7FAFF2078114F114E08280DD00020FFF75AF970780128207810D02B
:405000000D4969180880FE2070700020F8BD0120FFF74CF90720B8810549203188800120F2E7B8810248217820308180EBE70000C0112E40F40D002000102E4070B50E464B
:40504000050001D0002400E00C4C002C11D0E28A500609D5D107C90F022002F08DFFE08A40218843E08204E0D107C90F012002F083FF3146284602F067FC70BD74160020CF
:40508000F8B50546002004460D4E009013E022466946284600F0E0FF0098002801D00DF07BF9A878214602F0A9FAA878214602F097FA641CE4B2308AA042E8D8F8BD00000D
:4050C0004017002038B51E4CFFF79AF8042813D0052811D0062812D003282AD007280AD100206946087002460120FEF7ABFFFFF787F80128FBD138BD00F077FB38BD02F007
:40510000D3FA00F072FB02F033FB8007800F0228F4D10C4841880029F0D05B21095D0029ECD101210170A07D0140022002F024FF38BD02F0BDFA0120FFF792F838BD0000F6
:40514000741600201A0E0020F8B50646002402F081FF0546304602F097FF03460A480021068A0DE001228A401046174628401F40002803D0002F01D1224394B2491CC9B23E
:405180008E42EFD82046F8BD401700201CB50020694648706846FFF7BBFE01AA69460A20FEF750FF6946042008561CBD70B50D4601F038FB04000BD02079002808D0FDF737
:4051C0000DFFE178A0782A4602F044FC002070BD022070BD0148007970470000481600204030C07E002800D00120704700B500F001F800BD902148430749084A401860305E
:40520000417F491CC9B24177D289914201D300214177C8B270470000541600204017002013B501F0FFFA04000BD001F09CFE002807D0214601AA0A310620FEF703FF002064
:405240001CBD02201CBD000010B50C4601F0EAFA00280AD001F087FE002806D0224604490A20FEF7EFFE002010BD022010BD000035160020F3B581B00746014600260298C3
:4052800002F0E0FE0446002F01D0002500E0154D002D21D0284601F0FBFA032C04D13946029802F02BFF06463846029902F098F9032C06D0002C10D00121384601F0EEFB4F
:4052C00003E03146384603F01FF9284602F07CF80221284602F092F8FEBD3846029902F07FF9FEBD7416002010B5044600F066FA002804D103F0DEFD002801D00C2010BD2B
:405300002078611C02F0ACFCFF2801D01F2010BD02F0F2FCFF280AD02178621C02F0EEF8044821780068026B601C904710BD072010BD0000400E002010B503F0BBFD002816
:4053400001D00C2010BD02F06DFC03480068C06A8047002010BD0000400E002070B50D46044610210CF058FF1021601806460CF053FF334610221946204603F0C9FD102126
:4053800030460CF049FF02202870204604F0F0FB70BD0000F8B504464078217802028006870FE0781143A67809050002090D0643084601F037FA00210546F2B2002812D0DC
:4053C000002C10D0022F0ED0032F0CD0002A0AD00279092A07D0002A05D0134A5A23527F1B5C9A4207D82889002104F0F6FA20460CF0D2FFFF21002914D10C4822460068E4
:405400002946436930469847C0B2FF280AD128464030817EF2B2491C8176FF232146284600F0E3F8F8BD0000081600205C0E00200020704710B5044603F03CFD002801D061
:405440000C2010BD2078611C02F00AFCFF2808D002F03EFB044821780068426B601C904710BD1F2010BD0000400E002010B500F06BF904F047FC002010BD10B504460078A4
:405480006178E2780843A17811430843217908436179084305D003F0FFFC002803D00C2010BD122010BD204602F0D2FC002010BD10B5FCF713FF02F0EFFD044803F066FD99
:4054C00002F010FB012000F003F810BD1C160020F1B586B003A8009005A8019028489F22017B114001736846FDF792FD002845D169460989C90705D0224806990068C268CD
:405500006846904769460989890706D5002835D11D480068816A0698884700282ED11B4E0025757075737571F575357675767575B570F570B5713746F5730120D03738732D
:405540001F20F880FF2130467972A0300176457600F0CAFA00242046069901F0AFFC002803D1641C2406240EF5D0FD720749BD72B573C0310D704D704D600D7207B0F0BD0A
:40558000081600205C0E0020400E00205416002070B505460E46084602F05CFD0446304602F072FD0121A9400A46224001400A4301D0012070BD002070BD10B50446084699
:4055C00002F062FD0121A140014201D0012010BD002010BD10B5FEF713FE032804D102F067F80120FEF73CFE10BDFEB51C4616460F46054601F0E8FEA878FFF7F7FD0246F5
:405600000190334639460094284600F00DF8002808D1A8780199FFF711FDFF2C02D138460CF0BAFEFEBD0000FFB585B005460E980C46FF2810D02B49C00009680A584018AE
:405640000179C0795278814201D9012601E09006860F6846038108E06078A1788006860FE0780002014368460181284601F086FC070007D021462846079A00F081FC3846C9
:4056800009B0F0BD304600F02FFD04AE0346039002AA29460096204600F0BBFB3C20405D002818D0284601F069FC012813D0684600890096C0B20190A878231DFF220799DD
:4056C00002F0F6F868460089039BC2B2A878079902F03AFCD3E7684600890021C0B20091E9E70000580E0020F8B5002600253046FFF72AFD07001DD090201149704340189A
:405700006030447F12E0601CFCF7D0FECCB23846E040C007C00F07D02146304601F058FF21463046FFF7A6FD6D1CEDB20548018AA942E8D8761C3606360ED7D0F8BD0000AA
:40574000541600204017002010B502F0CBF90020FFF7BEFE0CF0B6FE002010BDF8B5002400F0B2F80123012800D10124104F00203E4620360425082203E0002801D00021E7
:4057800000E031460979002907D001290BD002290BD0114681402143CCB2401C0006000EEBD07C70F8BD1C43F7E72C43F5E700005416002010B5FFF7D1FF10BD10B50446C6
:4057C00004F0F2FB002802D1601C00F001F810BD1CB500240094062269460194FCF782FF002800D1122420461CBD10B5FCF70DFB0446FEF705FD012809D0FEF701FD0228A4
:4058000005D0FCF7BBFD2046FCF703FBEEE72046FCF7FFFA10BD10B50B4681791943817103D08078114602F05DFB10BD10B582798A43827102D1807802F068FB10BD000099
:4058400030B50C4C0220A28A0B4B9978002901D0022906D11D785B78EB18282B01D9032002E0032900D101205105490DC0020143A18230BDC0112E40100E002000B500F09B
:4058800029F8002807D0012805D0032801D0042801D0002000BD012000BD014600B50020C90701D000F010F800BD014600B50020C90701D000F008F800BD00000148006889
:4058C00070470000080E002001480088000A704720102E400448008B410501D5042070474007800F7047000000102E400148406870470000080E00207CB504460025684686
:405900000570200610D5FFF7E5FF01280CD101A801F0D4FE6846007900F036FB012001F0BBFD0220FFF746FF600712D50C48017901290ED10571684601F0C0FE684600780E
:4059400000F056FB0220FFF735FF00212620FFF70FFB044800680169204688477CBD0000140E0020400E002010B501460A4A007800241070FFF7A8FF0128084603D002F0A2
:40598000D3F9204610BD00F0E7F80400F9D1034801210170F5E70000100E00201417002070B50446FFF790FF002801D00C2070BDA27B01211F48002A827801D00A4301E0F9
:4059C0005208520082706279012A14D0C17849084900C170184D2868016820468847207901280CD06188208803F012F82080207904280FD015E0C2780A43C270EAE7286809
:405A0000C168E01D8847E01D02F00EFA0B48008D208006E02868C168E01D8847E01D02F003FA074920798870204602F08BF9002070BD000054160020400E00200816002063
:405A4000100E002008B50178FFF73EFF814201D10C2008BD002914D0072069460870FFF70DFF012807D10121684600F0E5F8012801D0092008BDFFF7E3FE02F097F901209C
:405A800011E0FFF7FBFE012806D1684601F016FE6846007800F0ACFA02F07EF9FFF714FF0028FBD10220FFF785FE002008BD000010B501460A4A007800245070FFF704FFFC
:405AC0000128084603D002F0EDF9204610BD00F065F80400F9D1034801214170F5E70000100E00201417002038B568460CF0EAFB002801D01F2038BD01210098C902018004
:405B00004180002505714571857107214173857302F018F9009C202200212046FCF7FAFD25702A460021601CFCF7F4FD204602F0FBF8204602F0B6F900980CF02DFC06227A
:405B400000210448FCF7E6FD02480C388560002038BD0000140E0020F8B5044600250D4800950078012806D068460CF0ABFB002803D007250CE00C250AE0074E00983060A0
:405B80002278611C401CFCF7BCFD3168207808702846F8BD14170020080E0020F8B5044600250D4800954078012806D068460CF089FB002803D007250CE00C250AE0074E0B
:405BC000009870602278611C401CFCF79AFD7168207808702846F8BD14170020080E00200346084800B5834209D8184600F01AFE002804D00089984201D1012000BD00202A
:405C000000BD0000FF0E0000074A9179491C8906890E917138220A4092014907090E1143084302490840704754160020FF0E0000C006C00E70470000F8B507460E460024D7
:405C40000D4803E0002C01D0002500E005462979002905D0641C2406240EF3D00020F8BD0021204601F02AF92E712046FFF7CCFF28813C700120F8BD7416002010B503F09D
:405C80007BF90222002100F003F801F0D7FE10BD10B5094B40074907000F090F185A595A40185043C0086421FCF700FC002800D1012080B210BD000028490100F7B53D20F6
:405CC000405C88B015460C46002802D02878042802D200200BB0F0BD6946087200262046FFF77EFA012800D00126204603A938300191009023460327A17E34333246206A07
:405D000003F05EF902A8089900900B46019120463A4603A9243003F0DBF802466846007A2870204601F0B6F81046D3E7FFB587B00C4605461078694608723D20005D174642
:405D4000002826D000262046FFF74AFA012800D00126204603A93830019100902346A17E34333246206A03F02BF902A80090291D019120462B1D03A924300A9A03F0A8F884
:405D800002006846007A388002D1204601F082F810460BB0F0BDF0B505463C20405C89B016460C4600280CD0307869460873002806D000272046FFF713FA012803D003E08D
:405DC0001F2009B0F0BD012703200890204604A93830019100902346E17E34333A46E06903F0EEF86846007B03A928180290009120462B46019504A92430089A03F09CF8DE
:405E000002466846007B3070204601F04DF81046D7E7FFB505463C20405C89B016460C46002810D0084601F0A9F801280BD0308869468883002809D000272046FFF7D0F918
:405E4000012805D005E000200DB0F0BD0220FBE70127204603A93830019100902346E17E34333A46E06903F0ABF8291D2B1D07A8129A6D4607C5204603A924300C9A03F0F8
:405E80005BF802466846808B3080204601F00CF81046D9E770B50D460446FFF7A1F901280AD0E87AA97A00020143A07801F0C2FC012808D0002070BD00222421204602F079
:405EC000F9FC242070BD28214C200155204600F0B1FB282070BD0000002801D0002000E003484030C07F012800D0002070470000741600200146002049070ED50021084B3F
:405F000003E0002901D0002200E01A461279022A04D0491C0906090EF3D0704701207047741600200146002049070ED50021084B03E0002901D0002200E01A461279022A0C
:405F400004D0491C0906090EF3D07047012070477416002010B5044680346068002803D00CF02EFA0020606010BD40304170704740308170704740300170704701717047BE
:405F800092001018C166704770B53C2501F09CF9040004D020460021433001F0FFFBFF222946204600F0E8FB002C02D0A07801F00DF970BD10B5002801D0002000E0034874
:405FC000002802D0008903F04FFD10BD7416002010B5002801D0002000E00448002804D00179072901D100F047F810BD7416002010B501F069F9002802D0807801F0E6F867
:4060000010BD00207047000070B50546008A00281ED01049F122097B1140C90618D5294640314A8A098A521C4A4392B2D10800D10121540801E0621A94B2A042FBD9FEF7B3
:40604000AFFE012804D1298AA878224601F0B8FC70BD00000816002010B50023054C0B60248A944204D992001018C26E0A60C36610BD00004017002038B50446002000907D
:40608000A079002814D14020015D052901D00E290ED168460CF026F9002809D12046009902F0E6FB03481021428B2046FFF7B3FB38BD00000816002010B50B46044601461D
:4060C000184602F04FF8002802D020460CF06EF910BD13B5044601AA11460620FDF7B2FF6846818861811CBD002800D10220704770470000F8B504462346401D54330090CB
:406100009A1EA078911E01F0F5FA25464035A88A298A8000FCF7CAF9401E81B2688A884203D96982A07801F061FF698A8C20015120460021433001F031FB27480088E88120
:4061400002F01AFFE989891C8AB26179FFF7A0FD01F074FC02F010FF2A8A6179FFF798FD074601F05FFC688A002806D01B49088A032212021043088202E0002001F02AFF28
:406180001648803801886E8A002E0CD0304648431349FCF775FA0004000C01D0401C80B21049488002E00F4800214180288A704381B2A07801F084FEFF2228374932B9B24B
:4061C0001346204602F028FCE98AA07801F0F8FDA07801F025FAF8BD80102E40E0112E40710200001A0E00207FB504468034616805460E46183108226846FCF782FA3146C3
:406200002031082202A8FCF77CFA102168460CF003F86068102108300BF0FEFF60682B46083024331022694602F072FE7FBD10B504460821FFF7FAFA10212046FFF7F6FAEB
:40624000207905281FD006281DD008281AD12189002003F081FB072020712046FEF7C0FF014620464030012913D00E21017000210176204600F0BCFF2046FFF76BFE20468A
:40628000FFF7C2FE10BD20890122002103F048FBE1E70521EAE70000FFB581B01F4604460821FFF7C3FA10212046FFF7BFFA2079082803D0092804D0042203E004220125CD
:4062C00001E009220025204600F044FE264600204036307022712046FFF73CFE0398002D02D0012808D00BE001280AD120890022029903F015FB04E02189029803F02CFBD5
:40630000012700203076012F04D0204600F070FF05B0F0BD02983073204602F0F7FA054605480121428B2046FFF775FA002DEFD109202071ECE700000816002070B50C463D
:406340000546FEF74DFF012809D108212846FFF76DFA0023012221462846FFF79DFF70BD10B5044600F0F6FD2046FFF7F3FD00214034217010BD70B505461A24FEF730FFBD
:40638000012809D108212846FFF750FA0023012221462846FFF780FF70BD0000F8B50446002000900E4668460BF09CFF002801D00D20F8BD8420005908212030009D00F029
:4063C0002CFA20460421383000F027FA002E02D1204600F0FBFD2946204602F0D4F90E480821428B2046FFF716FA204600F071FF25464035002808D0204600F023F8002899
:4064000001D0092028700020F8BD08202870204600F0DAFFF7E7000008160020014610B540310A460978082906D0092907D00A2901D100F091F810BD0B20107010BD00F0D9
:4064400001F810BD70B50446007925464035052805D0062803D008280FD00C2070BD03220621204602F026FA0D480821428B2046FFF7D1F91120287010E00620287320460E
:4064800002F044FA0646AA8A0A20424301212046FFF7C1F9002E01D109202071002070BD0816002038B504460020009068460BF019FF002801D00D2038BD2046009D00F04A
:4064C000C3F908202071204600F080FD2946204602F090F900213D2001550F2040210855204600F071FF002038BD00B5024600F031FD10214032117000BD10B50446FEF768
:406500006FFE012809D04020005D112805D100231A4606212046FFF7BFFE10BD10B5FFF786FE10BD38B504460021684600910BF0D9FE00280CD12046009902F0DCF9054803
:406540000821428B2046FFF766F90D204034207038BD00000816002038B504460021684600910BF0BFFE002801D00D2038BD2046009902F0B5F905480821428B2046FFF75E
:406580004AF90C2040342070002038BD0816002000787047F8B5002569460D70002801D0002400E01F4C002C18D0204600F0DBFC002813D0207903280BD005280CD0264620
:4065C0004036B18AA07801F085FCB078012806D01DE0042020711DE006202071F8BD0021204601F0DCFD274680373868002802D00BF0E6FE3D600020B0702079072802D1B8
:406600002046FFF701FD0221204600F0F7FE20790428E3D1207A694608703420FEF7A8FCF8BD00007416002010B54C22115400F052F810BD10B50446FF21FFF7F7F8092030
:406640002071A07801F06CFC10BD000038B5FF216A461180002801D0002400E00B4C002C12D011460620FDF7EDFC684601882046FFF72FFD204600F087FC002804D1044860
:406680000068C1692046884738BD0000741600205C0E002010B504468079002809D022214C200155FF212046FFF7C0F8204600F012F810BD10B5037902464032002B03D082
:4066C0001173092B02D003E0002100E02221117300F001F810BDFEB504460089002700902781207926464036002817D0012815D002280AD112E002AA01A9204601F020FD71
:40670000002807D101980BF051FE204601F040FD0028F0D02046FEF7B3FCB776254680352868002802D00BF04BFE2F606868002802D00BF045FE6F60317B002919D0009819
:4067400000F064F8A078002100F086FF2046FFF795FAA07801F058F8A07800F037FDFF212046FFF763F80B20FFF724F800F068FCFEBD1F213173E2E7F8B517460E46054626
:4067800002F0F6FB04003CD020460C3000F0F6FF2046062200211830FBF7BCFF2046062200211230FBF7B6FF1648224600683946436A28469847074626702846FEF710FD29
:4067C000012148406070002D10D02889608028464030C1782171002E0FD169796171018AE180418A2181808A608106E00648008BC005C00F2071002060803946204603F016
:406800002EF8F8BD400E002000102E400A4610B50146002003F040F910BD10B50BF0D8FA10BD000000B50146FFF702FA002801D0002000E00348002802D002898A4200D06A
:40684000002000BD7416002038B5044680346068002806D168460BF055FD002801D100986060606838BD000010B5014600F086FB0128887802D0FEF7BDFC10BD90214843A6
:40688000024940186030007F10BD00005416002070B5054604464035A87F012811D1A1789020084A484380186030067F3046FEF76FFE002805D10220A877A078314601F084
:4068C0004DF870BD5416002010B50C4CA07A002813D0FEF709FF0A48027F417F408B00F0B7FB012809D10020A07200F0FDFE05498989090B01D000F03BFA10BD24170020AB
:4069000054160020A0102E4070477047490510B5490F0B00FCF730FD060704080C0C0F073E21FFF781FE10BD0821FFF7C3FE10BDFFF7D1FE10BDFFF7ADFE10BDF8B507461C
:406940000025002D01D0002600E0204E00F09AFE3046403044890021418100F09DFE304600F001FB01282BD1A00702D52846FFF711FEE00602D52846FFF768FEA00601D55C
:40698000FEF7B2FE600601D500F014FB200602D5284600F01DF8600702D5284600F02CFA380402D52846FFF713FB780402D52846FFF700FBE00703D021463046FFF7A6FF5C
:4069C0006D1C2D062D0EBCD0F8BD000074160020F8B5002801D0002400E0284C002C4BD025464035A878012846D1FF278820493700593E46002805D02149097B890601D595
:406A0000878AC68A2046FEF7EBFB012834D002F0B3FA2A8A6179FFF73BF9009001F002F800983346283081B23A46204601F0F4FFE98AA07801F0C4F912480188688A124EE1
:406A4000002810D048431149FBF71AFE0004000C01D0401C80B27080A07DC107C90F002001F08AFA01E000207080288A698A484381B2A07801F024FAF8BD00007416002094
:406A80000816002060112E401A0E00207102000001490968096808475C0E002070B50D460026194A0146002801D0002401E014462034002C26D0204600F060FA01280AD12F
:406AC0009020484380186030007FFEF761FD002801D101F09BFE0D48006881692046884700280CD020464030817EA94202D3491B817600E086762089294602F06EFF204654
:406B000000F062FC70BD0000541600205C0E002070B503460088FFF785FE040013D000F022FA00280FD02079092819D02546997840352973204601F0E9FE0646A87801284A
:406B400003D0AA8A02E0022070BDEA880A20424301212046FEF75FFE002E01D109202071002070BD0EB5002217216B460292198100905A810120029B00990BF0C1FC0EBD9A
:406B8000F8B518480024807A002822D1164E0025B089000B22E0204600F010FE1249A039401807882A462146384600F051FA012810D00E480122478305770A4944778A72DF
:406BC000002D01D0002000E02030002801D000F0FBFBF8BDB089000B641CE4B20028DAD1F8BD000024170020A0102E405416002010B50088FFF716FE002809D001464031BE
:406C00000C460978082905D00B2903D00C2010BD022010BDFFF716FC002801D009202070002010BD70B503460088FFF7FBFD040008D0254640352878082805D00B2803D09A
:406C40000C2070BD022070BD8420005910220830991CFBF756FD2046FFF7C6FA2878082804D02046FFF778FC002801D00A202870204600F0A9FB002070BD000010B50C4662
:406C8000002121700088FFF7CDFD03000BD000F06AF9002807D00948F121007B0840C00603D4112010BD022010BD022020701A8A1889002102F00CFF002010BD08160020BA
:406CC000F8B50F46002100910088FFF7ABFD040012D000F048F900280ED0E079410641D4617E02264A07002A08DB8907402500291ADA2843E07135E00220F8BD02F038F9A6
:406D00000021017021894180A1898180217E4170E189C1803E7005460178134802F0B2FB284602F079FE1DE0204600F02DF9012806D068460BF0D6FA002803D00720F8BD25
:406D40002A20F8BDE07900992843E071204601F007FE607E0421304360760448428B2046FEF759FD0020F8BD1D040000081600203EB500220F236C4602922381009101906D
:406D8000628169460EC900200BF0BAFB3EBD0000F8B50F46054600F097FA040025D003202071254600264035EE76E6702046FFF7A1F900F0F1FF0920FEF7FCFCA07800F070
:406DC00011FD0121204600F019FB2E706E70AE703A4600212046FFF7CFFC0649887B401C8873A078FFF754FEF8BD284601F098F8F8BD00005416002010B5002801D00020CD
:406E000000E0094800280DD0014640310A464978022901D100215170807DC107C90F002001F0AAF810BD00007416002070B503460D460088FFF7F6FC04000BD000F093F822
:406E4000002807D01248F121007B0840C00603D4112070BD022070BD20464030418A008A491C41430804C10C5888884201D2122070BD20822079072802D12046FFF7C4F87C
:406E8000022028702089002102F04AFE002070BD08160020016A491C016204D1817E491C4906490E81767047C169491CC16104D1C17E491C4906490EC1767047F0B5074619
:406EC00087B003A8009005A800260D460190002F01D0002400E01B4C002C05D06846FCF797F8002803D00BE0022007B0F0BD68460089C00704D1902200212046FBF70AFC5D
:406F0000114829460068826820469047050016D1A77066762746267140373E70204600F019F8204601F030F9084820820848BE77007BF121084000D001202075E682E8B237
:406F4000D3E70000741600205C0E0020B80B000008160020002101628176C161C17620300177417770470079002805D0012803D0022801D001207047002070474030807F8C
:406F8000002800D00120704740300078002807D0012805D0052803D00E2801D0012070470020704710B5807801F06EF8002800D0012010BD10B500F097FB03498989090BB3
:406FC00001D0FFF7D5FE10BDA0102E4070B5054604464035A87F002825D1FF206075A0789021154A484380186030417F9023491CC9B24177A0785843104B8018DB89603024
:40700000994201D300214177A0789021484380186030467F0677A1783046FEF7B9FA002802D00120A87770BD0220A877A078314600F094FC70BD00005416002040170020EE
:407040000020401C0006000EFBD0002070470000F0B515468207920F85B0000A02926A469080002D01D0002400E0564C002C28D0084600F0A3FB07466846808800280BD077
:407080000298012843D0022841D003280BD03D20005D012879D08FE04B48381801882046FFF717F888E00020029002A80BF0FAF8002807D03D20005D012802D12046FFF785
:4070C000E9FE7CE06846029E8388324600213846FCF7CAFE3C48381801882046FEF7F9FF284600F0A9FA01AA21463046FEF7E6FD002806D030460BF045F93D204C2108553D
:4071000031E0F5773146204601F0A6F957E0002000902089039068460BF0B4F8002802D0002005B0F0BD6846009E8388321D00213846FCF799FE2448381801882046FEF702
:40714000C8FF284600F078FA2046FFF70CFF002805D025464035287E002810D107E030460BF006F92BE02046FFF764FA27E001AA21463046029BFEF7D9FD002806D03046FE
:407180000BF0F6F83D202873EDE712E00298FEF7AFFF0399317003990001090A0143717068468088B070000AF0703046FFF7DAFC05E02046FFF76EFE284600F03DFA0120F4
:4071C000AFE700007416002000102E4010B5074A917B002901D0491E91730021FFF76EFE002801D0002010BD012010BD54160020F8B5074606464037B87F00282DD0B07828
:40720000902100904843234945186035287F0099FEF7D3F901281ED0287F401CC4B21E48C089A04200D800240020B877FF276F772F77A87702460146009800F0FFFC717DE6
